:020000040800F2
:10000000FF7F012065060008A1050008A305000880
:10001000A5050008A7050008A905000800000000C4
:10002000000000000000000000000000AB05000818
:10003000AD05000800000000AF050008B10500088C
:10004000BD060008BD060008BD060008BD06000884
:10005000BD060008BD060008BD060008BD06000874
:10006000BD060008BD060008BD060008BD06000864
:10007000BD060008BD060008BD060008BD06000854
:10008000BD060008BD060008BD060008000000000F
:10009000000000000000000000000000BD06000895
:1000A000BD060008BD060008BD060008BD06000824
:1000B000BD060008BD060008BD060008BD06000814
:1000C000BD060008BD060008BD060008BD06000804
:1000D000BD060008BD060008BD06000800000000BF
:1000E000BD060008BD060008BD06000800000000AF
:1000F000000000000000000000000000BD06000835
:1001000000000000BD060008BD060008BD0600088E
:1001100000000000000000000000000000000000DF
:10012000BD060008BD060008BD060008BD060008A3
:10013000BD060008000000000000000000000000F4
:10014000000000000000000000000000BD060008E4
:10015000BD060008BD060008BD060008BD06000873
:10016000BD060008BD0600080000000000000000F9
:10017000000000000000000000000000000000007F
:1001800000000000BD0600080000000000000000A4
:04019000BD060008A0
:1001940010B5054C237833B9044810B10448AFF3C3
:1001A40000800121217010BD3004002000000000F7
:1001B4007008000808B5064B1BB106480649AFF3A2
:1001C40000800648016811B1054A02B1904708BD94
:1001D40000000000700800083404002030040020EF
:1001E40000000000224A136C43F08050214B10643D
:1001F400196841F40040186010681D498007FBD558
:100204001A6842F0800018600B6823F080720A605C
:10021400174B19688801FBD4174858601A6842F0D4
:10022400807119601A6812489101FBD5134B196843
:1002340041F4407242F0020119601B6803F00F029E
:10024400022A00D0FEE7816841F002038360084877
:1002540082681207FBD5816821F0F003836082680D
:1002640042F480518160836823F460428260704765
:10027400003802400070004010540127003C024046
:10028400FEE700BF044982B00191019B13B10198BC
:10029400411EF9E702B07047FFFF0F002DE9F0415E
:1002A400D1F800C00022012303FA02F303EA0C058B
:1002B4009D4240F0C5804B68022B01D0122B13D114
:1002C400D408083402F0070750F82460BF004FF048
:1002D4000F0808FA07F826EA08080E6906FA07F76D
:1002E40048EA070640F8246054000327066807FA22
:1002F40004F7FF4307EA060803F0030606FA04F6C8
:1003040048EA060606605E1E012E03D9112B01D0B1
:10031400122B12D1866807EA0608CE6806FA04F69C
:1003240048EA06068660466826EA0508C3F300160E
:1003340006FA02F648EA06064660C66837408E6842
:1003440006FA04F647EA060413F0805FC46077D027
:100354003E4C676C47F4804666649608B71CA4F567
:1003640080344FF00F0854F8274002F00307BF0011
:1003740008FA07F824EA0808354CA04226D004F508
:100384008064A04224D004F58064A04222D004F505
:100394008064A04220D004F58064A0421ED004F5FD
:1003A4008064A0421CD004F58064A0421AD004F5F5
:1003B4008064A04218D004F58064A04216D004F5ED
:1003C4008064A04214BF0A24092410E000240EE033
:1003D40001240CE002240AE0032408E0042406E0DB
:1003E400052404E0062402E0072400E00824023681
:1003F40004FA07F7174C47EA080744F82670164E24
:100404003768EC43274013F4803F18BF2F4337600D
:1004140077689E0307EA04070F4E48BF2F437760AF
:10042400B76813F4801F07EA040718BF2F43B760A7
:10043400F6689B0204EA0604074B48BF2C43DC60C1
:100444000132102A7FF42FAFBDE8F081003802405A
:100454000000024000380140003C0140F0B5002398
:10046400012202FA03F202EA0104944244D103266F
:100474005F00056806FA07F2D2431540056023FAC7
:1004840006F5083503F0070C50F825700F264FEADF
:100494008C0C06FA0CFC27EA0C0740F825708568DA
:1004A400154085604768E44327404760C5689F0856
:1004B4002A40C260BD1C124A03F0030C52F8257096
:1004C4004FEA8C0C06FA0CF627EA060642F8256079
:1004D400D2F800542540C2F80054D2F80454254000
:1004E400C2F80454D2F808542540C2F80854D2F88B
:1004F4000C542C40C2F80C440133102BB0D1F0BD85
:1005040000380140036919420CBF002001207047E4
:100514000AB101837047418370474369594041617F
:10052400704782B04FF480330193019A41EA020389
:100534000193019AC261C1610199C161C3690193C7
:10054400C06980F48032C2F3004002B07047704743
:1005540008B5044B5969084202D05861FFF7F7FF08
:1005640008BD00BF003C0140024B1A68501C1860D3
:10057400704700BF4C040020014B1868704700BF4F
:100584004C04002013B50190FFF7F6FF0446FFF773
:10059400F3FF019B001B9842F9D31CBD7047FEE793
:1005A400FEE7FEE7FEE770477047704708B5FFF7C0
:1005B400DBFF08BD004870470000010170B5044628
:1005C40086B020B90C4B1A6B42F001001863022666
:1005D40004960A4E012120250291039156F8240025
:1005E400019501A9FFF75AFE56F824002946002276
:1005F400FFF78EFF06B070BD0038024000000020F7
:10060400034B53F8200020210122FFF781BF00BFD4
:1006140000000020034B53F8200020210022FFF7A4
:1006240077BF00BF00000020024B53F820002021B8
:10063400FFF773BF0000002010B50020FFF7BEFFD6
:100644006524013C0AD00020FFF7DAFFFFF71AFE09
:100654000020FFF7DFFFFFF715FEF2E7204610BD8D
:10066400DFF83CD0002100F004B80E4B5B58435037
:1006740004310D480D4B42189A42FFF4F6AF0C4A70
:1006840000F003B8002342F8043B0A4B9A42FFF4FB
:10069400F9AFFFF7A7FD00F08FF8FFF7CDFF704724
:1006A400FF7F01209C080008000000203004002087
:1006B4003004002050040020FFF7FEBF2DE9F04174
:1006C400274C2568D5F8484184B00746002C41D012
:1006D40066681F2E1CDD234810B94FF0FF301FE061
:1006E4004FF4C870039102920193AFF30080039911
:1006F400029A019B04460028EFD0D5F848610020F7
:1007040060602660C5F84841C4F88801C4F88C01CB
:10071400656847B9A81C013544F8201065600020BD
:1007240004B0BDE8F081D4F88861012004EB8508A9
:1007340000FA05F00643022FC8F88820C4F888613F
:10074400C8F80831E6D1D4F88C3143EA0002C4F881
:100754008C21DFE705F5A674C5F84841B8E700BF6A
:100764008C0800080000000070B5114B114C181BD8
:10077400811018D004EB81044E1E354654F8042D24
:1007840006F00106904775B126B154F8043D984728
:10079400013D08D054F8040D8047013D54F8041D70
:1007A4008847013DF6D1BDE8704000F065B800BF50
:1007B4009C08000898080008F8B5204F204C381B06
:1007C400871017D07A1E2368012502F00106984786
:1007D400AF420FD02EB154F8041F02258847AF4210
:1007E40008D0606880470235A268261D9047083407
:1007F400AF42F6D1134F144C00F038F83B1B9F1056
:1008040018D07D1E216805F0010601258847AF42F6
:1008140011D02EB154F8040F02258047AF420BD0FB
:10082400626890470235A368261D98470834AF4292
:10083400F6D1F8BDF8BDF8BDF8BD00BF90080008BA
:10084400900800089808000890080008024B13B1AB
:10085400024800F005B87047000000006D0700086A
:100864000146002002460346FFF728BFF8B500BF43
:10087400F8BC08BC9E467047F8B500BFF8BC08BC7D
:040884009E467047D5
:080888004300000008000020FD
:0808900051080008B90100083D
:0408980095010008BE
:10089C00000002400008024000000000F4020020AA
:1008AC005C030020C40300200000000000000000D6
:1008BC00000000000000000000000000000000002C
:1008CC000000000000000000000000008808000884
:1008DC00000000000000000000000000000000000C
:1008EC0000000000000000000000000000000000FC
:1008FC0000000000000000000000000000000000EC
:10090C0000000000000000000000000000000000DB
:10091C0000000000000000000000000000000000CB
:10092C0000000000000000000000000000000000BB
:10093C0000000000000000000000000000000000AB
:10094C0001000000000000000E33CDAB34126DE648
:10095C00ECDE05000B0000000000000000000000B1
:10096C00000000000000000000000000000000007B
:10097C00000000000000000000000000000000006B
:10098C00000000000000000000000000000000005B
:10099C00000000000000000000000000000000004B
:040000050800066584
:00000001FF
